:020000040000FA
:100000000C9434000C9446000C9446000C9446006A
:100010000C9446000C9446000C9446000C94460048
:100020000C9446000C9446000C9446000C94460038
:100030000C9446000C9446000C9446000C94460028
:100040000C9446000C9446000C9446000C94460018
:100050000C9446000C9446000C9446000C94460008
:100060000C9446000C94460011241FBECFEFD8E03C
:10007000DEBFCDBF21E0A0E0B1E001C01D92A03104
:10008000B207E1F70E9448000C9426010C9400008E
:100090008FE784B98AB980E885B98BB921E030E06F
:1000A0009FEF1F99A5C040910401509105014F5F3A
:1000B0005F4F5093050140930401453F51400CF4BC
:1000C00043C04091080150910901452BC9F5309377
:1000D00009012093080145B1B9010090000102C057
:1000E000660F771F0A94E2F7462B45B9409100014D
:1000F000509101014F5F5F4F509301014093000108
:1001000047305105ECF04AE050E095B9EFE3FCE9E7
:100110003197F1F700C0000085B9EFE3FCE93197B2
:10012000F1F700C000004150510979F71092010128
:1001300010920001109203011092020185B98BB94F
:1001400010920501109204014F9969C04091060177
:10015000509107014F5F5F4F509307014093060195
:10016000453F51400CF49DCF40910A0150910B0145
:10017000452BC9F530930B0120930A014BB1B9010E
:100180000090020102C0660F771F0A94E2F7462B27
:100190004BB940910201509103014F5F5F4F509363
:1001A00003014093020147305105ECF04AE050E072
:1001B0009BB9EFE3FCE93197F1F700C000008BB980
:1001C000EFE3FCE93197F1F700C00000415051091D
:1001D00079F7109201011092000110920301109220
:1001E000020185B98BB9109207011092060159CF0F
:1001F00040910C0150910D014F5F5F4F50930D01E5
:1002000040930C01453F51400CF49ECF10920901E0
:100210001092080110920D0110920C0195CF40919F
:100220000E0150910F014F5F5F4F50930F014093AC
:100230000E01453F51400CF434CF10920B01109247
:100240000A0110920F0110920E012BCFF894FFCFEC
:107E0000112484B714BE81FFF0D085E080938100F7
:107E100082E08093C00088E18093C10086E0809377
:107E2000C20080E18093C4008EE0C9D0259A86E02C
:107E300020E33CEF91E0309385002093840096BBD3
:107E4000B09BFECF1D9AA8958150A9F7CC24DD24C4
:107E500088248394B5E0AB2EA1E19A2EF3E0BF2EE7
:107E6000A2D0813461F49FD0082FAFD0023811F036
:107E7000013811F484E001C083E08DD089C08234E0
:107E800011F484E103C0853419F485E0A6D080C0E4
:107E9000853579F488D0E82EFF2485D0082F10E0AE
:107EA000102F00270E291F29000F111F8ED06801E7
:107EB0006FC0863521F484E090D080E0DECF843638
:107EC00009F040C070D06FD0082F6DD080E0C81688
:107ED00080E7D80618F4F601B7BEE895C0E0D1E017
:107EE00062D089930C17E1F7F0E0CF16F0E7DF06D8
:107EF00018F0F601B7BEE89568D007B600FCFDCFD4
:107F0000A601A0E0B1E02C9130E011968C91119780
:107F100090E0982F8827822B932B1296FA010C0160
:107F200087BEE89511244E5F5F4FF1E0A038BF0790
:107F300051F7F601A7BEE89507B600FCFDCF97BE46
:107F4000E89526C08437B1F42ED02DD0F82E2BD052
:107F50003CD0F601EF2C8F010F5F1F4F84911BD097
:107F6000EA94F801C1F70894C11CD11CFA94CF0C13
:107F7000D11C0EC0853739F428D08EE10CD085E9AC
:107F80000AD08FE07ACF813511F488E018D01DD067
:107F900080E101D065CF982F8091C00085FFFCCF94
:107FA0009093C60008958091C00087FFFCCF809118
:107FB000C00084FD01C0A8958091C6000895E0E648
:107FC000F0E098E1908380830895EDDF803219F02E
:107FD00088E0F5DFFFCF84E1DECF1F93182FE3DFCA
:107FE0001150E9F7F2DF1F91089580E0E8DFEE27F6
:047FF000FF270994CA
:027FFE00040479
:00000001FF
