:100000000C9434000C9446000C9446000C9446006A
:100010000C9446000C9446000C9446000C94460048
:100020000C9446000C9446000C9446000C94460038
:100030000C9446000C9446000C9446000C94460028
:100040000C9446000C9446000C9446000C94460018
:100050000C9446000C9446000C9446000C94460008
:100060000C9446000C94460011241FBECFEFD8E03C
:10007000DEBFCDBF21E0A0E0B1E001C01D92A03104
:10008000B207E1F70E9448000C9426010C9400008E
:100090008FE784B98AB980E885B98BB921E030E06F
:1000A0009FEF1F99A5C040910401509105014F5F3A
:1000B0005F4F5093050140930401453F51400CF4BC
:1000C00043C04091080150910901452BC9F5309377
:1000D00009012093080145B1B9010090000102C057
:1000E000660F771F0A94E2F7462B45B9409100014D
:1000F000509101014F5F5F4F509301014093000108
:1001000047305105ECF04AE050E095B9EFE3FCE9E7
:100110003197F1F700C0000085B9EFE3FCE93197B2
:10012000F1F700C000004150510979F71092010128
:1001300010920001109203011092020185B98BB94F
:1001400010920501109204014F9969C04091060177
:10015000509107014F5F5F4F509307014093060195
:10016000453F51400CF49DCF40910A0150910B0145
:10017000452BC9F530930B0120930A014BB1B9010E
:100180000090020102C0660F771F0A94E2F7462B27
:100190004BB940910201509103014F5F5F4F509363
:1001A00003014093020147305105ECF04AE050E072
:1001B0009BB9EFE3FCE93197F1F700C000008BB980
:1001C000EFE3FCE93197F1F700C00000415051091D
:1001D00079F7109201011092000110920301109220
:1001E000020185B98BB9109207011092060159CF0F
:1001F00040910C0150910D014F5F5F4F50930D01E5
:1002000040930C01453F51400CF49ECF10920901E0
:100210001092080110920D0110920C0195CF40919F
:100220000E0150910F014F5F5F4F50930F014093AC
:100230000E01453F51400CF434CF10920B01109247
:100240000A0110920F0110920E012BCFF894FFCFEC
:00000001FF
